:100000002CC050C0B3C44EC04DC04CC04BC04AC041
:1000100049C048C047C060C445C044C043C0CBC508
:1000200013C500003A00370000003B003800000014
:100030000000000403020100000000003900360047
:100040000101010101010101020202020102040891
:100050001020408004020108060711241FBECFE5CE
:10006000D2E0DEBFCDBF10E0A0E6B0E0ECEAFEE0FB
:1000700002C005900D92A63AB107D9F721E0A6EA91
:10008000B0E001C01D92A536B207E1F710E0CDE265
:10009000D0E003C02197FE0101D7CC32D107D1F7C0
:1000A000D1D502C7ADCF80916401882339F020916A
:1000B000630182131CC08FEF9FEF0895909162013E
:1000C00080916101891B8F70B1F3909162018091E1
:1000D00061019817E1F3E0916201EF5FEF70E09347
:1000E0006201F0E0EA55FF4F808190E00895E22F31
:1000F000F0E0EA55FF4F808190E02F5F209363018D
:100100000895089590E0FC01E45BFF4F2491FC0109
:10011000E05CFF4FE491EE2371F0F0E0EE0FFF1F83
:10012000E65CFF4FA591B491EC91E22381E090E071
:1001300021F480E0089580E090E0089590E0FC01D3
:10014000E25DFF4F3491FC01E45BFF4F2491FC0121
:10015000E05CFF4FE491EE23B9F0332329F0313016
:10016000A1F480B78F7780BFF0E0EE0FFF1FE85D4E
:10017000FF4FA591B4918FB7611117C0F894EC911E
:1001800020952E232C938FBF0895323019F480B719
:100190008F7DE9CF333021F48FB58F778FBDE4CFDA
:1001A000343011F78FB58F7DF9CFF894EC912E2B69
:1001B000E9CFCF93DF9390E0FC01E45BFF4F249104
:1001C000805C9F4FFC0184918823C9F090E0880FE8
:1001D000991FFC01EE5DFF4FA591B491FC01E85D14
:1001E000FF4FC591D49161110DC09FB7F8948C91C8
:1001F000209582238C938881282328839FBFDF91B9
:10020000CF910895623051F49FB7F8943C91822FBA
:10021000809583238C93E8812E2BEFCF8FB7F894B2
:10022000EC912E2B2C938FBFEACF2FB7F8946091CF
:100230004F017091500180915101909152012FBF57
:100240000895FC0186AD811104C081E024AD95AD17
:10025000291380E008950F931F93E7DF0091C700F3
:100260001091C8002091C9003091CA00E09190001F
:10027000F0919100AB01BC01401B510B620B730B61
:10028000CF01B0E0A0E0481759076A077B0708F4E0
:1002900066C0CBDF6093C7007093C8008093C9002D
:1002A0009093CA0080918E00826080938E0081E0DE
:1002B00029DF892B09F056C080918E0084608093DD
:1002C0008E0080918E00877F80938E000091C70002
:1002D0001091C8002091C9003091CA00809190000F
:1002E00090919100081B190B210931098091080197
:1002F00090910901992339F090E001966FE070E048
:10030000A6D5809308018091070190E0FC01EE0FD3
:10031000FF1FEE0FFF1FE553FF4F00831183228362
:10032000338301966FE070E092D58093070190913E
:100330000801981303C081E0809309018BEC90E0E1
:1003400080DF90919B0080FB91F990939B009091AE
:10035000090180919B0090FB82F980939B001F9183
:100360000F91089580918E00886080938E00809117
:100370008E008B7F80938E000091C7001091C80083
:100380002091C9003091CA00809190009091910015
:10039000081B190B210931098091470190914801EF
:1003A000992339F090E001966FE070E050D580938A
:1003B00047018091460190E0FC01EE0FFF1FEE0F18
:1003C000FF1FE65FFE4F0083118322833383019674
:1003D0006FE070E03CD580934601909147019813FF
:1003E00003C081E0809348018AE091E02ADF909188
:1003F000920080FB91F99093920090914801809136
:10040000920090FB82F980939200A9CFCF92DF9265
:10041000EF92FF9281E076DE21E0892B09F420E063
:1004200080918E0020FB80F980938E00FEDEE091AB
:100430004701F0E0EE0FFF1FEE0FFF1FE65FFE4FDC
:10044000C080D180E280F3806C197D098E099F09FC
:1004500060939700709398008093990090939A000E
:10046000E4DE6B017C018AE091E0EBDE81118CC05F
:100470008091460190E00E966FE070E0E8D4FC01B8
:10048000EE0FFF1FEE0FFF1FE65FFE4F8081918191
:10049000A281B381C81AD90AEA0AFB0AC092930062
:1004A000D0929400E0929500F0929600BEDEE0912A
:1004B0000801F0E0EE0FFF1FEE0FFF1FE553FF4FA7
:1004C000C080D180E280F3806C197D098E099F097C
:1004D0006093A0007093A1008093A2009093A3006A
:1004E000A4DE6B017C018BEC90E0ABDE811150C08F
:1004F0008091070190E00E966FE070E0A8D4FC01B7
:10050000EE0FFF1FEE0FFF1FE553FF4F808191811C
:10051000A281B381C81AD90AEA0AFB0AC0929C00D8
:10052000D0929D00E0929E00F0929F008091C600C4
:100530004AE150E0481B51096091C60070E030E08C
:1005400020E04217530741F190915A0180915B01DD
:100550009F5F891B8F70A9F080915A018F5F8F7008
:1005600090915B018917E1F3E82FF0E0EA54FF4F27
:10057000DB01A20FB31FA557BF4F9C9190838093BF
:100580005A012F5F3F4FDDCF80E090E0DC0182CF4A
:1005900080E090E0DC01BECFFF90EF90DF90CF9045
:1005A0000895FF920F931F93CF93DF938C017BDD10
:1005B0008093C600F12C01501109CF2DD0E0C01757
:1005C000D10784F570DD2091C6002C0F3D2F311D21
:1005D0002A31310528F5A091C600E091C600EC0F44
:1005E000FD2FF11DE557FF4FAC0FBD2FB11DA05AD8
:1005F000BF4F9C9190952081922390839091C6004B
:10060000E091C600EC0FFD2FF11DE557FF4FC90F1C
:10061000D11DC05ADF4F988198238081892B808318
:10062000F394CBCF8091920080FF3CC08AE091E0B0
:1006300008DE9091470181110AC0892F90E0019650
:100640006FE070E004D48093470110924801E0917C
:100650004701F0E0EE0FFF1FEE0FFF1FE65FFE4FBA
:1006600080819181A281B3818093970090939800BB
:10067000A0939900B0939A009091480180919200C4
:1006800090FB82F9809392008AE091E0DADD90910C
:10069000920080FB91F990939200809192008E7F5E
:1006A0008093920080919B0080FF3CC08BEC90E097
:1006B000C8DD9091080181110AC0892F90E0019650
:1006C0006FE070E0C4D38093080110920901E091BB
:1006D0000801F0E0EE0FFF1FEE0FFF1FE553FF4F85
:1006E00080819181A281B3818093A0009093A10029
:1006F000A093A200B093A3009091090180919B0068
:1007000090FB82F980939B008BEC90E09ADD9091B6
:100710009B0080FB91F990939B0080919B008E7FC2
:1007200080939B0081E080938A00DF91CF911F919D
:100730000F91FF900895CF93DF93EB0172D38883DD
:10074000CE01DF91CF910895FF920F931F93CF9326
:10075000DF93EC01F62E08811981C80162D3F816E7
:1007600019F06F2DC80165D3CE01DF91CF911F9194
:100770000F91FF9008950F931F93CF93DF9300D0B5
:10078000CDB7DEB78C0183E090E09A838983F801CE
:100790006081CE010196D8DFC8010F900F90DF91E4
:1007A000CF911F910F9108951F93CF93DF9300D0A6
:1007B000CDB7DEB7BE016E5F7F4F83E090E0BBDF59
:1007C0008A818F3F29F481E08983CE010196D3DFAE
:1007D00089E098DC892B61F48A8112E1882349F051
:1007E0001091A40088EF810F803738F012E105C026
:1007F00013E11982CE010196BEDF1093A400D498B4
:10080000D6981DB880EF8EB91092630110926401E2
:10081000109262011092610110925B0110925A01D4
:100820001093600110925F0110925E0110925D01C1
:1008300010925C01DC9ADE9AD49AD69898EA9DB917
:100840008EB981ED92E090935D0180935C0186E02A
:1008500092E090935F0180935E010F900F90DF9183
:10086000CF911F9108950F931F93CF93DF9300D0E3
:10087000CDB7DEB78C0182E090E09A838983F801DE
:100880006081CE01019660DF83E090E09A838983E6
:10089000F8016181CE01019657DFC8010F900F90DA
:1008A000DF91CF911F910F9108950F931F93CF93D5
:1008B000DF9300D0CDB7DEB78B019A838983FB012C
:1008C0006081CE01019640DFC8010F900F90DF914B
:1008D000CF911F910F9108951F920F920FB60F9213
:1008E00011242F933F938F939F93AF93BF93809146
:1008F0004F0190915001A0915101B091520130915E
:100900004E0126E0230F2D3768F129E8230F0396C7
:10091000A11DB11D20934E0180934F019093500172
:10092000A0935101B093520180914A0190914B01E3
:10093000A0914C01B0914D010196A11DB11D809374
:100940004A0190934B01A0934C01B0934D01BF918C
:10095000AF919F918F913F912F910F900FBE0F906C
:100960001F9018950296A11DB11DD4CF1F920F9212
:100970000FB60F9211242F933F934F935F936F9372
:100980007F938F939F93AF93BF93CF93EF93FF93F7
:1009900099B380915301C0915701C923282F209505
:1009A000C223209155018223292F20958223C82B11
:1009B00090935301C0FF05C0E0917A00F0917B0055
:1009C0000995C1FF05C0E0918800F0918900099563
:1009D000C2FF05C0E0917C00F0917D000995C3FF46
:1009E00005C0E0917E00F0917F000995C4FF05C02D
:1009F000E0918000F09181000995C5FF05C0E0916C
:100A00008200F09183000995C6FF05C0E091840043
:100A1000F09185000995C7FF05C0E0918600F0912F
:100A200087000995FF91EF91CF91BF91AF919F9171
:100A30008F917F916F915F914F913F912F910F9087
:100A40000FBE0F901F9018951F920F920FB60F9226
:100A500011242F933F934F935F936F937F938F93C3
:100A60009F93AF93BF93CF93EF93FF9380914901EF
:100A7000823009F474C0B8F4882389F1813009F414
:100A800054C0FF91EF91CF91BF91AF919F918F9102
:100A90007F916F915F914F913F912F910F900FBE7A
:100AA0000F901F901895843009F45FC0B8F185301D
:100AB00041F784E0809349019FB1809161018F5F8C
:100AC0008F7020916201281709F473C0809361012F
:100AD000E0916101F0E0EA55FF4F908319C08FB1BA
:100AE000882331F08FB1869590916001891319C0E8
:100AF000789B12C0E0915E01F0915F01309729F080
:100B000080915A0180935B01099581E080934901AE
:100B10001FB8D69A8EE721C084E0F8CF8FB1882322
:100B200021F0D69888EA8DB917C080915B01909129
:100B30005A019817B1F380915B018F5F8F7080939A
:100B40005B01E0915B01F0E0EA54FF4F80818FB9D7
:100B500082E080934901D69A80E78EB992CF83E0F4
:100B600080934901D6981FB8D5CF85E0809349017D
:100B7000D69880E78EB9E0915C01F0915D013097E5
:100B800009F47FCFC0916101809162018C1709F453
:100B900078CF8EB18E7AE9F3759B73CF9091620115
:100BA00080916101891B8F7090E00995C09362016B
:100BB00068CFD698AFCF1F920F920FB60F92112425
:100BC0002F933F934F935F936F937F938F939F9355
:100BD000AF93BF93CF93EF93FF93E0915C01F091BC
:100BE0005D01309781F0C0916101809162018C17A5
:100BF00051F09091620180916101891B8F7090E0AA
:100C00000995C093620110924901D698CC9B18C0F7
:100C1000CE9BFCCF88EA8DB980EF8EB9FF91EF9122
:100C2000CF91BF91AF919F918F917F916F915F9184
:100C30004F913F912F910F900FBE0F901F901895DD
:100C400088EFE9CFCF93DF9300D0CDB7DEB783E055
:100C500080BF83BF789499B7916099BF8FBD8EBDD7
:100C600086B18877866886B9379A62E089E0A1DA2A
:100C700060E081E09EDA60E080E09BDA16B884E80C
:100C800085BF80E885BF85B7877E85BF85B78062D1
:100C900085BF64EA70E090E080E04DDD8091A400C3
:100CA0008F3F41F482E18093A40064EA70E090E019
:100CB00080E0FBDD8091A4008850803740F082E125
:100CC0008093A40064EA70E090E080E0EEDD6FE8DD
:100CD00070E081E090E02FDD80918F008F3F41F444
:100CE00083E080938F006FE870E081E090E0DDDDCD
:100CF00082E090E096D08093900083E090E091D0E5
:100D0000809391008091900090919100019649F418
:100D10008AE090E0909391008093900080E990E0C9
:100D2000A2DD8BE291E0909389008093880080910E
:100D300057018260809357018091550182608093B2
:100D4000550189B380935301919A8BB780618BBF12
:100D50002BDD8091A4008093590161E083E0EED9FE
:100D600001E09091A40080915901981741F0809181
:100D7000A400809359010983CE010196FCDC809187
:100D80008E0081FF3CC080918F0080FF38C061E001
:100D900080E00FDA60E080E0D1D910918A00113054
:100DA00031F58091A4008850BE016E5F7F4F90E0C6
:100DB000803748F580E0BFDC8091A4009A818917D4
:100DC00061F08983BE016F5F7F4F90E080E06DDD51
:100DD0001983CE010196CFDCE7DC6FE870E081E09B
:100DE00090E063DD80E990E03EDD10928A0085B7F7
:100DF000806285BF889585B78F7D85BFB2CF60E063
:100E000080E0D7D9CACF80E096DCE7CFEAE0F1E016
:100E100014AE15AE16AEEBECF0E014AE15AE16AE99
:100E20000895E199FECF9FBB8EBBE09A99278DB3C1
:100E30000895262FE199FECF1CBA9FBB8EBB2DBB18
:100E40000FB6F894E29AE19A0FBE0196089597FBC7
:100E5000072E16F4009406D077FD08D00BD007FCBF
:100E600005D03EF4909581959F4F089570956195BA
:100E70007F4F0895AA1BBB1B51E107C0AA1FBB1FD0
:100E8000A617B70710F0A61BB70B881F991F5A9516
:100E9000A9F780959095BC01CD010895EE0FFF1F35
:0C0EA0000590F491E02D0994F894FFCF28
:100EAC000000000701FFFF0100000000000000002F
:100EBC00010000000000000000FF810081008100A3
:100ECC00810081008100810081000172010100011B
:100EDC00EE02020000000000000000020000000012
:060EEC00000000001200EE
:00000001FF
